{
  "address": "0xfC3aad02Faa9De0B78D0Ee3D17D2346C95C8E121",
  "abi": [
    {
      "inputs": [
        {
          "internalType": "address",
          "name": "_verifier",
          "type": "address"
        }
      ],
      "stateMutability": "nonpayable",
      "type": "constructor"
    },
    {
      "anonymous": false,
      "inputs": [
        {
          "indexed": true,
          "internalType": "address",
          "name": "owner",
          "type": "address"
        },
        {
          "indexed": true,
          "internalType": "address",
          "name": "spender",
          "type": "address"
        },
        {
          "indexed": false,
          "internalType": "uint256",
          "name": "value",
          "type": "uint256"
        }
      ],
      "name": "Approval",
      "type": "event"
    },
    {
      "anonymous": false,
      "inputs": [
        {
          "indexed": true,
          "internalType": "address",
          "name": "previousOwner",
          "type": "address"
        },
        {
          "indexed": true,
          "internalType": "address",
          "name": "newOwner",
          "type": "address"
        }
      ],
      "name": "OwnershipTransferred",
      "type": "event"
    },
    {
      "anonymous": false,
      "inputs": [
        {
          "indexed": true,
          "internalType": "bytes32",
          "name": "login",
          "type": "bytes32"
        },
        {
          "indexed": false,
          "internalType": "address",
          "name": "sender",
          "type": "address"
        },
        {
          "indexed": false,
          "internalType": "uint64",
          "name": "statementId",
          "type": "uint64"
        }
      ],
      "name": "Registration",
      "type": "event"
    },
    {
      "anonymous": false,
      "inputs": [
        {
          "indexed": true,
          "internalType": "bytes32",
          "name": "login",
          "type": "bytes32"
        },
        {
          "indexed": true,
          "internalType": "address",
          "name": "recepient",
          "type": "address"
        },
        {
          "indexed": false,
          "internalType": "uint256",
          "name": "amount",
          "type": "uint256"
        }
      ],
      "name": "Transfer",
      "type": "event"
    },
    {
      "anonymous": false,
      "inputs": [
        {
          "indexed": true,
          "internalType": "address",
          "name": "from",
          "type": "address"
        },
        {
          "indexed": true,
          "internalType": "address",
          "name": "to",
          "type": "address"
        },
        {
          "indexed": false,
          "internalType": "uint256",
          "name": "value",
          "type": "uint256"
        }
      ],
      "name": "Transfer",
      "type": "event"
    },
    {
      "inputs": [
        {
          "internalType": "address",
          "name": "owner",
          "type": "address"
        },
        {
          "internalType": "address",
          "name": "spender",
          "type": "address"
        }
      ],
      "name": "allowance",
      "outputs": [
        {
          "internalType": "uint256",
          "name": "",
          "type": "uint256"
        }
      ],
      "stateMutability": "view",
      "type": "function"
    },
    {
      "inputs": [
        {
          "internalType": "address",
          "name": "spender",
          "type": "address"
        },
        {
          "internalType": "uint256",
          "name": "amount",
          "type": "uint256"
        }
      ],
      "name": "approve",
      "outputs": [
        {
          "internalType": "bool",
          "name": "",
          "type": "bool"
        }
      ],
      "stateMutability": "nonpayable",
      "type": "function"
    },
    {
      "inputs": [
        {
          "internalType": "address",
          "name": "account",
          "type": "address"
        }
      ],
      "name": "balanceOf",
      "outputs": [
        {
          "internalType": "uint256",
          "name": "",
          "type": "uint256"
        }
      ],
      "stateMutability": "view",
      "type": "function"
    },
    {
      "inputs": [],
      "name": "decimals",
      "outputs": [
        {
          "internalType": "uint8",
          "name": "",
          "type": "uint8"
        }
      ],
      "stateMutability": "view",
      "type": "function"
    },
    {
      "inputs": [
        {
          "internalType": "address",
          "name": "spender",
          "type": "address"
        },
        {
          "internalType": "uint256",
          "name": "subtractedValue",
          "type": "uint256"
        }
      ],
      "name": "decreaseAllowance",
      "outputs": [
        {
          "internalType": "bool",
          "name": "",
          "type": "bool"
        }
      ],
      "stateMutability": "nonpayable",
      "type": "function"
    },
    {
      "inputs": [
        {
          "internalType": "bytes32",
          "name": "login",
          "type": "bytes32"
        }
      ],
      "name": "getBalance",
      "outputs": [
        {
          "internalType": "uint160",
          "name": "",
          "type": "uint160"
        }
      ],
      "stateMutability": "view",
      "type": "function"
    },
    {
      "inputs": [
        {
          "internalType": "address",
          "name": "spender",
          "type": "address"
        },
        {
          "internalType": "uint256",
          "name": "addedValue",
          "type": "uint256"
        }
      ],
      "name": "increaseAllowance",
      "outputs": [
        {
          "internalType": "bool",
          "name": "",
          "type": "bool"
        }
      ],
      "stateMutability": "nonpayable",
      "type": "function"
    },
    {
      "inputs": [],
      "name": "mintAmount",
      "outputs": [
        {
          "internalType": "uint256",
          "name": "",
          "type": "uint256"
        }
      ],
      "stateMutability": "view",
      "type": "function"
    },
    {
      "inputs": [],
      "name": "name",
      "outputs": [
        {
          "internalType": "string",
          "name": "",
          "type": "string"
        }
      ],
      "stateMutability": "view",
      "type": "function"
    },
    {
      "inputs": [],
      "name": "owner",
      "outputs": [
        {
          "internalType": "address",
          "name": "",
          "type": "address"
        }
      ],
      "stateMutability": "view",
      "type": "function"
    },
    {
      "inputs": [
        {
          "internalType": "bytes32",
          "name": "login",
          "type": "bytes32"
        },
        {
          "internalType": "uint64",
          "name": "statementId",
          "type": "uint64"
        }
      ],
      "name": "register",
      "outputs": [],
      "stateMutability": "nonpayable",
      "type": "function"
    },
    {
      "inputs": [],
      "name": "renounceOwnership",
      "outputs": [],
      "stateMutability": "nonpayable",
      "type": "function"
    },
    {
      "inputs": [
        {
          "internalType": "uint256",
          "name": "_mintAmount",
          "type": "uint256"
        }
      ],
      "name": "setMintAmount",
      "outputs": [],
      "stateMutability": "nonpayable",
      "type": "function"
    },
    {
      "inputs": [],
      "name": "symbol",
      "outputs": [
        {
          "internalType": "string",
          "name": "",
          "type": "string"
        }
      ],
      "stateMutability": "view",
      "type": "function"
    },
    {
      "inputs": [],
      "name": "totalSupply",
      "outputs": [
        {
          "internalType": "uint256",
          "name": "",
          "type": "uint256"
        }
      ],
      "stateMutability": "view",
      "type": "function"
    },
    {
      "inputs": [
        {
          "internalType": "bytes32",
          "name": "login",
          "type": "bytes32"
        },
        {
          "internalType": "bytes",
          "name": "proof",
          "type": "bytes"
        },
        {
          "internalType": "uint256[]",
          "name": "init_params",
          "type": "uint256[]"
        },
        {
          "internalType": "int256[][]",
          "name": "columns_rotations",
          "type": "int256[][]"
        },
        {
          "internalType": "address",
          "name": "recepient",
          "type": "address"
        },
        {
          "internalType": "uint256",
          "name": "amount",
          "type": "uint256"
        }
      ],
      "name": "transfer",
      "outputs": [],
      "stateMutability": "nonpayable",
      "type": "function"
    },
    {
      "inputs": [
        {
          "internalType": "address",
          "name": "to",
          "type": "address"
        },
        {
          "internalType": "uint256",
          "name": "amount",
          "type": "uint256"
        }
      ],
      "name": "transfer",
      "outputs": [
        {
          "internalType": "bool",
          "name": "",
          "type": "bool"
        }
      ],
      "stateMutability": "nonpayable",
      "type": "function"
    },
    {
      "inputs": [
        {
          "internalType": "address",
          "name": "from",
          "type": "address"
        },
        {
          "internalType": "address",
          "name": "to",
          "type": "address"
        },
        {
          "internalType": "uint256",
          "name": "amount",
          "type": "uint256"
        }
      ],
      "name": "transferFrom",
      "outputs": [
        {
          "internalType": "bool",
          "name": "",
          "type": "bool"
        }
      ],
      "stateMutability": "nonpayable",
      "type": "function"
    },
    {
      "inputs": [
        {
          "internalType": "address",
          "name": "newOwner",
          "type": "address"
        }
      ],
      "name": "transferOwnership",
      "outputs": [],
      "stateMutability": "nonpayable",
      "type": "function"
    },
    {
      "inputs": [
        {
          "internalType": "bytes32",
          "name": "",
          "type": "bytes32"
        }
      ],
      "name": "usedProofs",
      "outputs": [
        {
          "internalType": "bool",
          "name": "",
          "type": "bool"
        }
      ],
      "stateMutability": "view",
      "type": "function"
    },
    {
      "inputs": [
        {
          "internalType": "uint64",
          "name": "",
          "type": "uint64"
        }
      ],
      "name": "usedStatements",
      "outputs": [
        {
          "internalType": "bool",
          "name": "",
          "type": "bool"
        }
      ],
      "stateMutability": "view",
      "type": "function"
    },
    {
      "inputs": [
        {
          "internalType": "bytes32",
          "name": "",
          "type": "bytes32"
        }
      ],
      "name": "users",
      "outputs": [
        {
          "internalType": "uint64",
          "name": "nonce",
          "type": "uint64"
        },
        {
          "internalType": "address",
          "name": "verifier",
          "type": "address"
        },
        {
          "internalType": "uint64",
          "name": "statementId",
          "type": "uint64"
        },
        {
          "internalType": "uint160",
          "name": "balance",
          "type": "uint160"
        }
      ],
      "stateMutability": "view",
      "type": "function"
    },
    {
      "inputs": [],
      "name": "verifier",
      "outputs": [
        {
          "internalType": "address",
          "name": "",
          "type": "address"
        }
      ],
      "stateMutability": "view",
      "type": "function"
    }
  ],
  "transactionHash": "0x14398fb0b8d064164bf961140ec8f7a6c42c7c82c15fffbf3d5a98dbd3eedffa",
  "args": [
    "0x2Ca8E0C643bDe4C2E08ab1fA0da3401AdAD7734D"
  ],
  "numDeployments": 1,
  "solcInputHash": "0f56f8be73b9f84002b61916be523e84",
  "bytecode": "0x60806040523480156200001157600080fd5b50604051620032bd380380620032bd833981810160405281019062000037919062000271565b6040518060400160405280600681526020017f7a6b4175746800000000000000000000000000000000000000000000000000008152506040518060400160405280600681526020017f7a6b4155544800000000000000000000000000000000000000000000000000008152508160039081620000b491906200051d565b508060049081620000c691906200051d565b505050620000e9620000dd6200013960201b60201c565b6200014160201b60201c565b80600960006101000a81548173ffffffffffffffffffffffffffffffffffffffff021916908373ffffffffffffffffffffffffffffffffffffffff1602179055506005600a819055505062000604565b600033905090565b6000600560009054906101000a900473ffffffffffffffffffffffffffffffffffffffff16905081600560006101000a81548173ffffffffffffffffffffffffffffffffffffffff021916908373ffffffffffffffffffffffffffffffffffffffff1602179055508173ffffffffffffffffffffffffffffffffffffffff168173ffffffffffffffffffffffffffffffffffffffff167f8be0079c531659141344cd1fd0a4f28419497f9722a3daafe3b4186f6b6457e060405160405180910390a35050565b600080fd5b600073ffffffffffffffffffffffffffffffffffffffff82169050919050565b600062000239826200020c565b9050919050565b6200024b816200022c565b81146200025757600080fd5b50565b6000815190506200026b8162000240565b92915050565b6000602082840312156200028a576200028962000207565b5b60006200029a848285016200025a565b91505092915050565b600081519050919050565b7f4e487b7100000000000000000000000000000000000000000000000000000000600052604160045260246000fd5b7f4e487b7100000000000000000000000000000000000000000000000000000000600052602260045260246000fd5b600060028204905060018216806200032557607f821691505b6020821081036200033b576200033a620002dd565b5b50919050565b60008190508160005260206000209050919050565b60006020601f8301049050919050565b600082821b905092915050565b600060088302620003a57fffffffffffffffffffffffffffffffffffffffffffffffffffffffffffffffff8262000366565b620003b1868362000366565b95508019841693508086168417925050509392505050565b6000819050919050565b6000819050919050565b6000620003fe620003f8620003f284620003c9565b620003d3565b620003c9565b9050919050565b6000819050919050565b6200041a83620003dd565b62000432620004298262000405565b84845462000373565b825550505050565b600090565b620004496200043a565b620004568184846200040f565b505050565b5b818110156200047e57620004726000826200043f565b6001810190506200045c565b5050565b601f821115620004cd57620004978162000341565b620004a28462000356565b81016020851015620004b2578190505b620004ca620004c18562000356565b8301826200045b565b50505b505050565b600082821c905092915050565b6000620004f260001984600802620004d2565b1980831691505092915050565b60006200050d8383620004df565b9150826002028217905092915050565b6200052882620002a3565b67ffffffffffffffff811115620005445762000543620002ae565b5b6200055082546200030c565b6200055d82828562000482565b600060209050601f83116001811462000595576000841562000580578287015190505b6200058c8582620004ff565b865550620005fc565b601f198416620005a58662000341565b60005b82811015620005cf57848901518255600182019150602085019450602081019050620005a8565b86831015620005ef5784890151620005eb601f891682620004df565b8355505b6001600288020188555050505b505050505050565b612ca980620006146000396000f3fe608060405234801561001057600080fd5b506004361061014d5760003560e01c8063858e9631116100c3578063b27eb8b41161007c578063b27eb8b4146103b6578063c30a0f25146103e6578063c7cd997f14610416578063cea6ab9814610432578063dd62ed3e14610465578063f2fde38b146104955761014d565b8063858e9631146102ce5780638da5cb5b146102ea5780638e7394611461030857806395d89b4114610338578063a457c2d714610356578063a9059cbb146103865761014d565b8063313ce56711610115578063313ce5671461020c578063395093511461022a5780634850d0821461025a5780635a2bcc181461027657806370a0823114610294578063715018a6146102c45761014d565b806306fdde0314610152578063095ea7b31461017057806318160ddd146101a057806323b872dd146101be5780632b7ac3f3146101ee575b600080fd5b61015a6104b1565b6040516101679190611942565b60405180910390f35b61018a60048036038101906101859190611a02565b610543565b6040516101979190611a5d565b60405180910390f35b6101a8610566565b6040516101b59190611a87565b60405180910390f35b6101d860048036038101906101d39190611aa2565b610570565b6040516101e59190611a5d565b60405180910390f35b6101f661059f565b6040516102039190611b04565b60405180910390f35b6102146105c5565b6040516102219190611b3b565b60405180910390f35b610244600480360381019061023f9190611a02565b6105ce565b6040516102519190611a5d565b60405180910390f35b610274600480360381019061026f9190611c9d565b610605565b005b61027e610aba565b60405161028b9190611a87565b60405180910390f35b6102ae60048036038101906102a99190611d8c565b610ac0565b6040516102bb9190611a87565b60405180910390f35b6102cc610b08565b005b6102e860048036038101906102e39190611df9565b610b1c565b005b6102f2610db1565b6040516102ff9190611b04565b60405180910390f35b610322600480360381019061031d9190611e39565b610ddb565b60405161032f9190611e75565b60405180910390f35b610340610e1b565b60405161034d9190611942565b60405180910390f35b610370600480360381019061036b9190611a02565b610ead565b60405161037d9190611a5d565b60405180910390f35b6103a0600480360381019061039b9190611a02565b610f24565b6040516103ad9190611a5d565b60405180910390f35b6103d060048036038101906103cb9190611e90565b610f47565b6040516103dd9190611a5d565b60405180910390f35b61040060048036038101906103fb9190611e39565b610f67565b60405161040d9190611a5d565b60405180910390f35b610430600480360381019061042b9190611ebd565b610f87565b005b61044c60048036038101906104479190611e39565b610f99565b60405161045c9493929190611ef9565b60405180910390f35b61047f600480360381019061047a9190611f3e565b611031565b60405161048c9190611a87565b60405180910390f35b6104af60048036038101906104aa9190611d8c565b6110b8565b005b6060600380546104c090611fad565b80601f01602080910402602001604051908101604052809291908181526020018280546104ec90611fad565b80156105395780601f1061050e57610100808354040283529160200191610539565b820191906000526020600020905b81548152906001019060200180831161051c57829003601f168201915b5050505050905090565b60008061054e61113b565b905061055b818585611143565b600191505092915050565b6000600254905090565b60008061057b61113b565b905061058885828561130c565b610593858585611398565b60019150509392505050565b600960009054906101000a900473ffffffffffffffffffffffffffffffffffffffff1681565b60006012905090565b6000806105d961113b565b90506105fa8185856105eb8589611031565b6105f5919061200d565b611143565b600191505092915050565b6000600660008b81526020019081526020016000206040518060800160405290816000820160009054906101000a900467ffffffffffffffff1667ffffffffffffffff1667ffffffffffffffff1681526020016000820160089054906101000a900473ffffffffffffffffffffffffffffffffffffffff1673ffffffffffffffffffffffffffffffffffffffff1673ffffffffffffffffffffffffffffffffffffffff1681526020016001820160009054906101000a900467ffffffffffffffff1667ffffffffffffffff1667ffffffffffffffff1681526020016001820160089054906101000a900473ffffffffffffffffffffffffffffffffffffffff1673ffffffffffffffffffffffffffffffffffffffff1673ffffffffffffffffffffffffffffffffffffffff16815250509050600073ffffffffffffffffffffffffffffffffffffffff16816020015173ffffffffffffffffffffffffffffffffffffffff16036107aa576040517f08c379a00000000000000000000000000000000000000000000000000000000081526004016107a19061208d565b60405180910390fd5b600089896040516107bc9291906120ec565b604051809103902090506007600082815260200190815260200160002060009054906101000a900460ff1615610827576040517f08c379a000000000000000000000000000000000000000000000000000000000815260040161081e90612151565b60405180910390fd5b82826060015173ffffffffffffffffffffffffffffffffffffffff161015610884576040517f08c379a000000000000000000000000000000000000000000000000000000000815260040161087b906121bd565b60405180910390fd5b6000600960009054906101000a900473ffffffffffffffffffffffffffffffffffffffff1673ffffffffffffffffffffffffffffffffffffffff166320702f578c8c8c8c8c8c8a602001516040518863ffffffff1660e01b81526004016108f197969594939291906124b5565b602060405180830381865afa15801561090e573d6000803e3d6000fd5b505050506040513d601f19601f820116820180604052508101906109329190612541565b905080610974576040517f08c379a000000000000000000000000000000000000000000000000000000000815260040161096b906125ba565b60405180910390fd5b600061097f30610ac0565b9050848110156109c4576040517f08c379a00000000000000000000000000000000000000000000000000000000081526004016109bb9061264c565b60405180910390fd5b6109ce8686610f24565b508573ffffffffffffffffffffffffffffffffffffffff168d7f4c13017ee95afc4bbd8a701dd9fbc9733f1f09f5a1b5438b5b9abd48e4c92d7887604051610a169190611a87565b60405180910390a360016007600085815260200190815260200160002060006101000a81548160ff021916908315150217905550600660008e8152602001908152602001600020600001600081819054906101000a900467ffffffffffffffff1680929190610a849061266c565b91906101000a81548167ffffffffffffffff021916908367ffffffffffffffff1602179055505050505050505050505050505050565b600a5481565b60008060008373ffffffffffffffffffffffffffffffffffffffff1673ffffffffffffffffffffffffffffffffffffffff168152602001908152602001600020549050919050565b610b1061160e565b610b1a600061168c565b565b600073ffffffffffffffffffffffffffffffffffffffff166006600084815260200190815260200160002060000160089054906101000a900473ffffffffffffffffffffffffffffffffffffffff1673ffffffffffffffffffffffffffffffffffffffff1614610bc1576040517f08c379a0000000000000000000000000000000000000000000000000000000008152600401610bb8906126e8565b60405180910390fd5b6040518060800160405280600067ffffffffffffffff1681526020013373ffffffffffffffffffffffffffffffffffffffff1681526020018267ffffffffffffffff168152602001600a5473ffffffffffffffffffffffffffffffffffffffff168152506006600084815260200190815260200160002060008201518160000160006101000a81548167ffffffffffffffff021916908367ffffffffffffffff16021790555060208201518160000160086101000a81548173ffffffffffffffffffffffffffffffffffffffff021916908373ffffffffffffffffffffffffffffffffffffffff16021790555060408201518160010160006101000a81548167ffffffffffffffff021916908367ffffffffffffffff16021790555060608201518160010160086101000a81548173ffffffffffffffffffffffffffffffffffffffff021916908373ffffffffffffffffffffffffffffffffffffffff1602179055509050506001600860008367ffffffffffffffff1667ffffffffffffffff16815260200190815260200160002060006101000a81548160ff021916908315150217905550610d7333600a54611752565b817f8c238420b7a93d0b301754da65d674a3c50ded89a3b3383983b1c8f88261f98b3383604051610da5929190612708565b60405180910390a25050565b6000600560009054906101000a900473ffffffffffffffffffffffffffffffffffffffff16905090565b60006006600083815260200190815260200160002060010160089054906101000a900473ffffffffffffffffffffffffffffffffffffffff169050919050565b606060048054610e2a90611fad565b80601f0160208091040260200160405190810160405280929190818152602001828054610e5690611fad565b8015610ea35780601f10610e7857610100808354040283529160200191610ea3565b820191906000526020600020905b815481529060010190602001808311610e8657829003601f168201915b5050505050905090565b600080610eb861113b565b90506000610ec68286611031565b905083811015610f0b576040517f08c379a0000000000000000000000000000000000000000000000000000000008152600401610f02906127a3565b60405180910390fd5b610f188286868403611143565b60019250505092915050565b600080610f2f61113b565b9050610f3c818585611398565b600191505092915050565b60086020528060005260406000206000915054906101000a900460ff1681565b60076020528060005260406000206000915054906101000a900460ff1681565b610f8f61160e565b80600a8190555050565b60066020528060005260406000206000915090508060000160009054906101000a900467ffffffffffffffff16908060000160089054906101000a900473ffffffffffffffffffffffffffffffffffffffff16908060010160009054906101000a900467ffffffffffffffff16908060010160089054906101000a900473ffffffffffffffffffffffffffffffffffffffff16905084565b6000600160008473ffffffffffffffffffffffffffffffffffffffff1673ffffffffffffffffffffffffffffffffffffffff16815260200190815260200160002060008373ffffffffffffffffffffffffffffffffffffffff1673ffffffffffffffffffffffffffffffffffffffff16815260200190815260200160002054905092915050565b6110c061160e565b600073ffffffffffffffffffffffffffffffffffffffff168173ffffffffffffffffffffffffffffffffffffffff160361112f576040517f08c379a000000000000000000000000000000000000000000000000000000000815260040161112690612835565b60405180910390fd5b6111388161168c565b50565b600033905090565b600073ffffffffffffffffffffffffffffffffffffffff168373ffffffffffffffffffffffffffffffffffffffff16036111b2576040517f08c379a00000000000000000000000000000000000000000000000000000000081526004016111a9906128c7565b60405180910390fd5b600073ffffffffffffffffffffffffffffffffffffffff168273ffffffffffffffffffffffffffffffffffffffff1603611221576040517f08c379a000000000000000000000000000000000000000000000000000000000815260040161121890612959565b60405180910390fd5b80600160008573ffffffffffffffffffffffffffffffffffffffff1673ffffffffffffffffffffffffffffffffffffffff16815260200190815260200160002060008473ffffffffffffffffffffffffffffffffffffffff1673ffffffffffffffffffffffffffffffffffffffff168152602001908152602001600020819055508173ffffffffffffffffffffffffffffffffffffffff168373ffffffffffffffffffffffffffffffffffffffff167f8c5be1e5ebec7d5bd14f71427d1e84f3dd0314c0f7b2291e5b200ac8c7c3b925836040516112ff9190611a87565b60405180910390a3505050565b60006113188484611031565b90507fffffffffffffffffffffffffffffffffffffffffffffffffffffffffffffffff81146113925781811015611384576040517f08c379a000000000000000000000000000000000000000000000000000000000815260040161137b906129c5565b60405180910390fd5b6113918484848403611143565b5b50505050565b600073ffffffffffffffffffffffffffffffffffffffff168373ffffffffffffffffffffffffffffffffffffffff1603611407576040517f08c379a00000000000000000000000000000000000000000000000000000000081526004016113fe90612a57565b60405180910390fd5b600073ffffffffffffffffffffffffffffffffffffffff168273ffffffffffffffffffffffffffffffffffffffff1603611476576040517f08c379a000000000000000000000000000000000000000000000000000000000815260040161146d90612ae9565b60405180910390fd5b6114818383836118a8565b60008060008573ffffffffffffffffffffffffffffffffffffffff1673ffffffffffffffffffffffffffffffffffffffff16815260200190815260200160002054905081811015611507576040517f08c379a00000000000000000000000000000000000000000000000000000000081526004016114fe90612b7b565b60405180910390fd5b8181036000808673ffffffffffffffffffffffffffffffffffffffff1673ffffffffffffffffffffffffffffffffffffffff16815260200190815260200160002081905550816000808573ffffffffffffffffffffffffffffffffffffffff1673ffffffffffffffffffffffffffffffffffffffff168152602001908152602001600020600082825401925050819055508273ffffffffffffffffffffffffffffffffffffffff168473ffffffffffffffffffffffffffffffffffffffff167fddf252ad1be2c89b69c2b068fc378daa952ba7f163c4a11628f55a4df523b3ef846040516115f59190611a87565b60405180910390a36116088484846118ad565b50505050565b61161661113b565b73ffffffffffffffffffffffffffffffffffffffff16611634610db1565b73ffffffffffffffffffffffffffffffffffffffff161461168a576040517f08c379a000000000000000000000000000000000000000000000000000000000815260040161168190612be7565b60405180910390fd5b565b6000600560009054906101000a900473ffffffffffffffffffffffffffffffffffffffff16905081600560006101000a81548173ffffffffffffffffffffffffffffffffffffffff021916908373ffffffffffffffffffffffffffffffffffffffff1602179055508173ffffffffffffffffffffffffffffffffffffffff168173ffffffffffffffffffffffffffffffffffffffff167f8be0079c531659141344cd1fd0a4f28419497f9722a3daafe3b4186f6b6457e060405160405180910390a35050565b600073ffffffffffffffffffffffffffffffffffffffff168273ffffffffffffffffffffffffffffffffffffffff16036117c1576040517f08c379a00000000000000000000000000000000000000000000000000000000081526004016117b890612c53565b60405180910390fd5b6117cd600083836118a8565b80600260008282546117df919061200d565b92505081905550806000808473ffffffffffffffffffffffffffffffffffffffff1673ffffffffffffffffffffffffffffffffffffffff168152602001908152602001600020600082825401925050819055508173ffffffffffffffffffffffffffffffffffffffff16600073ffffffffffffffffffffffffffffffffffffffff167fddf252ad1be2c89b69c2b068fc378daa952ba7f163c4a11628f55a4df523b3ef836040516118909190611a87565b60405180910390a36118a4600083836118ad565b5050565b505050565b505050565b600081519050919050565b600082825260208201905092915050565b60005b838110156118ec5780820151818401526020810190506118d1565b60008484015250505050565b6000601f19601f8301169050919050565b6000611914826118b2565b61191e81856118bd565b935061192e8185602086016118ce565b611937816118f8565b840191505092915050565b6000602082019050818103600083015261195c8184611909565b905092915050565b600080fd5b600080fd5b600073ffffffffffffffffffffffffffffffffffffffff82169050919050565b60006119998261196e565b9050919050565b6119a98161198e565b81146119b457600080fd5b50565b6000813590506119c6816119a0565b92915050565b6000819050919050565b6119df816119cc565b81146119ea57600080fd5b50565b6000813590506119fc816119d6565b92915050565b60008060408385031215611a1957611a18611964565b5b6000611a27858286016119b7565b9250506020611a38858286016119ed565b9150509250929050565b60008115159050919050565b611a5781611a42565b82525050565b6000602082019050611a726000830184611a4e565b92915050565b611a81816119cc565b82525050565b6000602082019050611a9c6000830184611a78565b92915050565b600080600060608486031215611abb57611aba611964565b5b6000611ac9868287016119b7565b9350506020611ada868287016119b7565b9250506040611aeb868287016119ed565b9150509250925092565b611afe8161198e565b82525050565b6000602082019050611b196000830184611af5565b92915050565b600060ff82169050919050565b611b3581611b1f565b82525050565b6000602082019050611b506000830184611b2c565b92915050565b6000819050919050565b611b6981611b56565b8114611b7457600080fd5b50565b600081359050611b8681611b60565b92915050565b600080fd5b600080fd5b600080fd5b60008083601f840112611bb157611bb0611b8c565b5b8235905067ffffffffffffffff811115611bce57611bcd611b91565b5b602083019150836001820283011115611bea57611be9611b96565b5b9250929050565b60008083601f840112611c0757611c06611b8c565b5b8235905067ffffffffffffffff811115611c2457611c23611b91565b5b602083019150836020820283011115611c4057611c3f611b96565b5b9250929050565b60008083601f840112611c5d57611c5c611b8c565b5b8235905067ffffffffffffffff811115611c7a57611c79611b91565b5b602083019150836020820283011115611c9657611c95611b96565b5b9250929050565b600080600080600080600080600060c08a8c031215611cbf57611cbe611964565b5b6000611ccd8c828d01611b77565b99505060208a013567ffffffffffffffff811115611cee57611ced611969565b5b611cfa8c828d01611b9b565b985098505060408a013567ffffffffffffffff811115611d1d57611d1c611969565b5b611d298c828d01611bf1565b965096505060608a013567ffffffffffffffff811115611d4c57611d4b611969565b5b611d588c828d01611c47565b94509450506080611d6b8c828d016119b7565b92505060a0611d7c8c828d016119ed565b9150509295985092959850929598565b600060208284031215611da257611da1611964565b5b6000611db0848285016119b7565b91505092915050565b600067ffffffffffffffff82169050919050565b611dd681611db9565b8114611de157600080fd5b50565b600081359050611df381611dcd565b92915050565b60008060408385031215611e1057611e0f611964565b5b6000611e1e85828601611b77565b9250506020611e2f85828601611de4565b9150509250929050565b600060208284031215611e4f57611e4e611964565b5b6000611e5d84828501611b77565b91505092915050565b611e6f8161196e565b82525050565b6000602082019050611e8a6000830184611e66565b92915050565b600060208284031215611ea657611ea5611964565b5b6000611eb484828501611de4565b91505092915050565b600060208284031215611ed357611ed2611964565b5b6000611ee1848285016119ed565b91505092915050565b611ef381611db9565b82525050565b6000608082019050611f0e6000830187611eea565b611f1b6020830186611af5565b611f286040830185611eea565b611f356060830184611e66565b95945050505050565b60008060408385031215611f5557611f54611964565b5b6000611f63858286016119b7565b9250506020611f74858286016119b7565b9150509250929050565b7f4e487b7100000000000000000000000000000000000000000000000000000000600052602260045260246000fd5b60006002820490506001821680611fc557607f821691505b602082108103611fd857611fd7611f7e565b5b50919050565b7f4e487b7100000000000000000000000000000000000000000000000000000000600052601160045260246000fd5b6000612018826119cc565b9150612023836119cc565b925082820190508082111561203b5761203a611fde565b5b92915050565b7f5573657220646f65736e27742065786973740000000000000000000000000000600082015250565b60006120776012836118bd565b915061208282612041565b602082019050919050565b600060208201905081810360008301526120a68161206a565b9050919050565b600081905092915050565b82818337600083830152505050565b60006120d383856120ad565b93506120e08385846120b8565b82840190509392505050565b60006120f98284866120c7565b91508190509392505050565b7f50726f6f6620616c726561647920757365640000000000000000000000000000600082015250565b600061213b6012836118bd565b915061214682612105565b602082019050919050565b6000602082019050818103600083015261216a8161212e565b9050919050565b7f4e6f7420656e6f7567682062616c616e63650000000000000000000000000000600082015250565b60006121a76012836118bd565b91506121b282612171565b602082019050919050565b600060208201905081810360008301526121d68161219a565b9050919050565b600082825260208201905092915050565b60006121fa83856121dd565b93506122078385846120b8565b612210836118f8565b840190509392505050565b600082825260208201905092915050565b600080fd5b82818337505050565b6000612246838561221b565b93507f07ffffffffffffffffffffffffffffffffffffffffffffffffffffffffffffff8311156122795761227861222c565b5b60208302925061228a838584612231565b82840190509392505050565b600082825260208201905092915050565b6000819050919050565b600082825260208201905092915050565b6000819050919050565b6000819050919050565b6122df816122cc565b82525050565b60006122f183836122d6565b60208301905092915050565b612306816122cc565b811461231157600080fd5b50565b600081359050612323816122fd565b92915050565b60006123386020840184612314565b905092915050565b6000602082019050919050565b600061235983856122b1565b9350612364826122c2565b8060005b8581101561239d5761237a8284612329565b61238488826122e5565b975061238f83612340565b925050600181019050612368565b5085925050509392505050565b60006123b784848461234d565b90509392505050565b600080fd5b600080fd5b600080fd5b600080833560016020038436030381126123ec576123eb6123ca565b5b83810192508235915060208301925067ffffffffffffffff821115612414576124136123c0565b5b60208202360383131561242a576124296123c5565b5b509250929050565b6000602082019050919050565b600061244b8385612296565b93508360208402850161245d846122a7565b8060005b878110156124a357848403895261247882846123cf565b6124838682846123aa565b955061248e84612432565b935060208b019a505050600181019050612461565b50829750879450505050509392505050565b600060808201905081810360008301526124d081898b6121ee565b905081810360208301526124e581878961223a565b905081810360408301526124fa81858761243f565b90506125096060830184611af5565b98975050505050505050565b61251e81611a42565b811461252957600080fd5b50565b60008151905061253b81612515565b92915050565b60006020828403121561255757612556611964565b5b60006125658482850161252c565b91505092915050565b7f50726f6f66206973206e6f742076616c69640000000000000000000000000000600082015250565b60006125a46012836118bd565b91506125af8261256e565b602082019050919050565b600060208201905081810360008301526125d381612597565b9050919050565b7f4e6f7420656e6f75676820746f6b656e7320696e2074686520636f6e7472616360008201527f7400000000000000000000000000000000000000000000000000000000000000602082015250565b60006126366021836118bd565b9150612641826125da565b604082019050919050565b6000602082019050818103600083015261266581612629565b9050919050565b600061267782611db9565b915067ffffffffffffffff820361269157612690611fde565b5b600182019050919050565b7f5573657220616c72656164792065786973747300000000000000000000000000600082015250565b60006126d26013836118bd565b91506126dd8261269c565b602082019050919050565b60006020820190508181036000830152612701816126c5565b9050919050565b600060408201905061271d6000830185611af5565b61272a6020830184611eea565b9392505050565b7f45524332303a2064656372656173656420616c6c6f77616e63652062656c6f7760008201527f207a65726f000000000000000000000000000000000000000000000000000000602082015250565b600061278d6025836118bd565b915061279882612731565b604082019050919050565b600060208201905081810360008301526127bc81612780565b9050919050565b7f4f776e61626c653a206e6577206f776e657220697320746865207a65726f206160008201527f6464726573730000000000000000000000000000000000000000000000000000602082015250565b600061281f6026836118bd565b915061282a826127c3565b604082019050919050565b6000602082019050818103600083015261284e81612812565b9050919050565b7f45524332303a20617070726f76652066726f6d20746865207a65726f2061646460008201527f7265737300000000000000000000000000000000000000000000000000000000602082015250565b60006128b16024836118bd565b91506128bc82612855565b604082019050919050565b600060208201905081810360008301526128e0816128a4565b9050919050565b7f45524332303a20617070726f766520746f20746865207a65726f20616464726560008201527f7373000000000000000000000000000000000000000000000000000000000000602082015250565b60006129436022836118bd565b915061294e826128e7565b604082019050919050565b6000602082019050818103600083015261297281612936565b9050919050565b7f45524332303a20696e73756666696369656e7420616c6c6f77616e6365000000600082015250565b60006129af601d836118bd565b91506129ba82612979565b602082019050919050565b600060208201905081810360008301526129de816129a2565b9050919050565b7f45524332303a207472616e736665722066726f6d20746865207a65726f20616460008201527f6472657373000000000000000000000000000000000000000000000000000000602082015250565b6000612a416025836118bd565b9150612a4c826129e5565b604082019050919050565b60006020820190508181036000830152612a7081612a34565b9050919050565b7f45524332303a207472616e7366657220746f20746865207a65726f206164647260008201527f6573730000000000000000000000000000000000000000000000000000000000602082015250565b6000612ad36023836118bd565b9150612ade82612a77565b604082019050919050565b60006020820190508181036000830152612b0281612ac6565b9050919050565b7f45524332303a207472616e7366657220616d6f756e742065786365656473206260008201527f616c616e63650000000000000000000000000000000000000000000000000000602082015250565b6000612b656026836118bd565b9150612b7082612b09565b604082019050919050565b60006020820190508181036000830152612b9481612b58565b9050919050565b7f4f776e61626c653a2063616c6c6572206973206e6f7420746865206f776e6572600082015250565b6000612bd16020836118bd565b9150612bdc82612b9b565b602082019050919050565b60006020820190508181036000830152612c0081612bc4565b9050919050565b7f45524332303a206d696e7420746f20746865207a65726f206164647265737300600082015250565b6000612c3d601f836118bd565b9150612c4882612c07565b602082019050919050565b60006020820190508181036000830152612c6c81612c30565b905091905056fea26469706673582212205bd3ae23d1d60ed1567937c29f81a7dc2f8c95a88422949c61e606eb928983d764736f6c63430008110033",
  "devdoc": {
    "kind": "dev",
    "methods": {
      "allowance(address,address)": {
        "details": "See {IERC20-allowance}."
      },
      "approve(address,uint256)": {
        "details": "See {IERC20-approve}. NOTE: If `amount` is the maximum `uint256`, the allowance is not updated on `transferFrom`. This is semantically equivalent to an infinite approval. Requirements: - `spender` cannot be the zero address."
      },
      "balanceOf(address)": {
        "details": "See {IERC20-balanceOf}."
      },
      "decimals()": {
        "details": "Returns the number of decimals used to get its user representation. For example, if `decimals` equals `2`, a balance of `505` tokens should be displayed to a user as `5.05` (`505 / 10 ** 2`). Tokens usually opt for a value of 18, imitating the relationship between Ether and Wei. This is the default value returned by this function, unless it's overridden. NOTE: This information is only used for _display_ purposes: it in no way affects any of the arithmetic of the contract, including {IERC20-balanceOf} and {IERC20-transfer}."
      },
      "decreaseAllowance(address,uint256)": {
        "details": "Atomically decreases the allowance granted to `spender` by the caller. This is an alternative to {approve} that can be used as a mitigation for problems described in {IERC20-approve}. Emits an {Approval} event indicating the updated allowance. Requirements: - `spender` cannot be the zero address. - `spender` must have allowance for the caller of at least `subtractedValue`."
      },
      "increaseAllowance(address,uint256)": {
        "details": "Atomically increases the allowance granted to `spender` by the caller. This is an alternative to {approve} that can be used as a mitigation for problems described in {IERC20-approve}. Emits an {Approval} event indicating the updated allowance. Requirements: - `spender` cannot be the zero address."
      },
      "name()": {
        "details": "Returns the name of the token."
      },
      "owner()": {
        "details": "Returns the address of the current owner."
      },
      "renounceOwnership()": {
        "details": "Leaves the contract without owner. It will not be possible to call `onlyOwner` functions. Can only be called by the current owner. NOTE: Renouncing ownership will leave the contract without an owner, thereby disabling any functionality that is only available to the owner."
      },
      "symbol()": {
        "details": "Returns the symbol of the token, usually a shorter version of the name."
      },
      "totalSupply()": {
        "details": "See {IERC20-totalSupply}."
      },
      "transfer(address,uint256)": {
        "details": "See {IERC20-transfer}. Requirements: - `to` cannot be the zero address. - the caller must have a balance of at least `amount`."
      },
      "transferFrom(address,address,uint256)": {
        "details": "See {IERC20-transferFrom}. Emits an {Approval} event indicating the updated allowance. This is not required by the EIP. See the note at the beginning of {ERC20}. NOTE: Does not update the allowance if the current allowance is the maximum `uint256`. Requirements: - `from` and `to` cannot be the zero address. - `from` must have a balance of at least `amount`. - the caller must have allowance for ``from``'s tokens of at least `amount`."
      },
      "transferOwnership(address)": {
        "details": "Transfers ownership of the contract to a new account (`newOwner`). Can only be called by the current owner."
      }
    },
    "version": 1
  },
  "userdoc": {
    "kind": "user",
    "methods": {},
    "version": 1
  },
  "storageLayout": {
    "storage": [
      {
        "astId": 128,
        "contract": "contracts/GoogleAuth.sol:GoogleAuth",
        "label": "_balances",
        "offset": 0,
        "slot": "0",
        "type": "t_mapping(t_address,t_uint256)"
      },
      {
        "astId": 134,
        "contract": "contracts/GoogleAuth.sol:GoogleAuth",
        "label": "_allowances",
        "offset": 0,
        "slot": "1",
        "type": "t_mapping(t_address,t_mapping(t_address,t_uint256))"
      },
      {
        "astId": 136,
        "contract": "contracts/GoogleAuth.sol:GoogleAuth",
        "label": "_totalSupply",
        "offset": 0,
        "slot": "2",
        "type": "t_uint256"
      },
      {
        "astId": 138,
        "contract": "contracts/GoogleAuth.sol:GoogleAuth",
        "label": "_name",
        "offset": 0,
        "slot": "3",
        "type": "t_string_storage"
      },
      {
        "astId": 140,
        "contract": "contracts/GoogleAuth.sol:GoogleAuth",
        "label": "_symbol",
        "offset": 0,
        "slot": "4",
        "type": "t_string_storage"
      },
      {
        "astId": 7,
        "contract": "contracts/GoogleAuth.sol:GoogleAuth",
        "label": "_owner",
        "offset": 0,
        "slot": "5",
        "type": "t_address"
      },
      {
        "astId": 863,
        "contract": "contracts/GoogleAuth.sol:GoogleAuth",
        "label": "users",
        "offset": 0,
        "slot": "6",
        "type": "t_mapping(t_bytes32,t_struct(User)858_storage)"
      },
      {
        "astId": 867,
        "contract": "contracts/GoogleAuth.sol:GoogleAuth",
        "label": "usedProofs",
        "offset": 0,
        "slot": "7",
        "type": "t_mapping(t_bytes32,t_bool)"
      },
      {
        "astId": 871,
        "contract": "contracts/GoogleAuth.sol:GoogleAuth",
        "label": "usedStatements",
        "offset": 0,
        "slot": "8",
        "type": "t_mapping(t_uint64,t_bool)"
      },
      {
        "astId": 873,
        "contract": "contracts/GoogleAuth.sol:GoogleAuth",
        "label": "verifier",
        "offset": 0,
        "slot": "9",
        "type": "t_address"
      },
      {
        "astId": 875,
        "contract": "contracts/GoogleAuth.sol:GoogleAuth",
        "label": "mintAmount",
        "offset": 0,
        "slot": "10",
        "type": "t_uint256"
      }
    ],
    "types": {
      "t_address": {
        "encoding": "inplace",
        "label": "address",
        "numberOfBytes": "20"
      },
      "t_bool": {
        "encoding": "inplace",
        "label": "bool",
        "numberOfBytes": "1"
      },
      "t_bytes32": {
        "encoding": "inplace",
        "label": "bytes32",
        "numberOfBytes": "32"
      },
      "t_mapping(t_address,t_mapping(t_address,t_uint256))": {
        "encoding": "mapping",
        "key": "t_address",
        "label": "mapping(address => mapping(address => uint256))",
        "numberOfBytes": "32",
        "value": "t_mapping(t_address,t_uint256)"
      },
      "t_mapping(t_address,t_uint256)": {
        "encoding": "mapping",
        "key": "t_address",
        "label": "mapping(address => uint256)",
        "numberOfBytes": "32",
        "value": "t_uint256"
      },
      "t_mapping(t_bytes32,t_bool)": {
        "encoding": "mapping",
        "key": "t_bytes32",
        "label": "mapping(bytes32 => bool)",
        "numberOfBytes": "32",
        "value": "t_bool"
      },
      "t_mapping(t_bytes32,t_struct(User)858_storage)": {
        "encoding": "mapping",
        "key": "t_bytes32",
        "label": "mapping(bytes32 => struct GoogleAuth.User)",
        "numberOfBytes": "32",
        "value": "t_struct(User)858_storage"
      },
      "t_mapping(t_uint64,t_bool)": {
        "encoding": "mapping",
        "key": "t_uint64",
        "label": "mapping(uint64 => bool)",
        "numberOfBytes": "32",
        "value": "t_bool"
      },
      "t_string_storage": {
        "encoding": "bytes",
        "label": "string",
        "numberOfBytes": "32"
      },
      "t_struct(User)858_storage": {
        "encoding": "inplace",
        "label": "struct GoogleAuth.User",
        "members": [
          {
            "astId": 851,
            "contract": "contracts/GoogleAuth.sol:GoogleAuth",
            "label": "nonce",
            "offset": 0,
            "slot": "0",
            "type": "t_uint64"
          },
          {
            "astId": 853,
            "contract": "contracts/GoogleAuth.sol:GoogleAuth",
            "label": "verifier",
            "offset": 8,
            "slot": "0",
            "type": "t_address"
          },
          {
            "astId": 855,
            "contract": "contracts/GoogleAuth.sol:GoogleAuth",
            "label": "statementId",
            "offset": 0,
            "slot": "1",
            "type": "t_uint64"
          },
          {
            "astId": 857,
            "contract": "contracts/GoogleAuth.sol:GoogleAuth",
            "label": "balance",
            "offset": 8,
            "slot": "1",
            "type": "t_uint160"
          }
        ],
        "numberOfBytes": "64"
      },
      "t_uint160": {
        "encoding": "inplace",
        "label": "uint160",
        "numberOfBytes": "20"
      },
      "t_uint256": {
        "encoding": "inplace",
        "label": "uint256",
        "numberOfBytes": "32"
      },
      "t_uint64": {
        "encoding": "inplace",
        "label": "uint64",
        "numberOfBytes": "8"
      }
    }
  }
}