{
  "address": "0xdc568d3c25edf68912c2b9dc4b1d76920cffc4d0",
  "abi": [
    {
      "inputs": [
        {
          "internalType": "address",
          "name": "_verifier",
          "type": "address"
        }
      ],
      "stateMutability": "nonpayable",
      "type": "constructor"
    },
    {
      "anonymous": false,
      "inputs": [
        {
          "indexed": true,
          "internalType": "address",
          "name": "owner",
          "type": "address"
        },
        {
          "indexed": true,
          "internalType": "address",
          "name": "spender",
          "type": "address"
        },
        {
          "indexed": false,
          "internalType": "uint256",
          "name": "value",
          "type": "uint256"
        }
      ],
      "name": "Approval",
      "type": "event"
    },
    {
      "anonymous": false,
      "inputs": [
        {
          "indexed": true,
          "internalType": "address",
          "name": "previousOwner",
          "type": "address"
        },
        {
          "indexed": true,
          "internalType": "address",
          "name": "newOwner",
          "type": "address"
        }
      ],
      "name": "OwnershipTransferred",
      "type": "event"
    },
    {
      "anonymous": false,
      "inputs": [
        {
          "indexed": true,
          "internalType": "bytes32",
          "name": "login",
          "type": "bytes32"
        },
        {
          "indexed": false,
          "internalType": "address",
          "name": "verifier",
          "type": "address"
        },
        {
          "indexed": false,
          "internalType": "uint64",
          "name": "statementId",
          "type": "uint64"
        }
      ],
      "name": "Registration",
      "type": "event"
    },
    {
      "anonymous": false,
      "inputs": [
        {
          "indexed": true,
          "internalType": "address",
          "name": "from",
          "type": "address"
        },
        {
          "indexed": true,
          "internalType": "address",
          "name": "to",
          "type": "address"
        },
        {
          "indexed": false,
          "internalType": "uint256",
          "name": "value",
          "type": "uint256"
        }
      ],
      "name": "Transfer",
      "type": "event"
    },
    {
      "anonymous": false,
      "inputs": [
        {
          "indexed": true,
          "internalType": "bytes32",
          "name": "login",
          "type": "bytes32"
        },
        {
          "indexed": true,
          "internalType": "address",
          "name": "recepient",
          "type": "address"
        },
        {
          "indexed": false,
          "internalType": "uint256",
          "name": "amount",
          "type": "uint256"
        }
      ],
      "name": "Transfer",
      "type": "event"
    },
    {
      "inputs": [
        {
          "internalType": "address",
          "name": "owner",
          "type": "address"
        },
        {
          "internalType": "address",
          "name": "spender",
          "type": "address"
        }
      ],
      "name": "allowance",
      "outputs": [
        {
          "internalType": "uint256",
          "name": "",
          "type": "uint256"
        }
      ],
      "stateMutability": "view",
      "type": "function"
    },
    {
      "inputs": [
        {
          "internalType": "address",
          "name": "spender",
          "type": "address"
        },
        {
          "internalType": "uint256",
          "name": "amount",
          "type": "uint256"
        }
      ],
      "name": "approve",
      "outputs": [
        {
          "internalType": "bool",
          "name": "",
          "type": "bool"
        }
      ],
      "stateMutability": "nonpayable",
      "type": "function"
    },
    {
      "inputs": [
        {
          "internalType": "address",
          "name": "account",
          "type": "address"
        }
      ],
      "name": "balanceOf",
      "outputs": [
        {
          "internalType": "uint256",
          "name": "",
          "type": "uint256"
        }
      ],
      "stateMutability": "view",
      "type": "function"
    },
    {
      "inputs": [],
      "name": "decimals",
      "outputs": [
        {
          "internalType": "uint8",
          "name": "",
          "type": "uint8"
        }
      ],
      "stateMutability": "view",
      "type": "function"
    },
    {
      "inputs": [
        {
          "internalType": "address",
          "name": "spender",
          "type": "address"
        },
        {
          "internalType": "uint256",
          "name": "subtractedValue",
          "type": "uint256"
        }
      ],
      "name": "decreaseAllowance",
      "outputs": [
        {
          "internalType": "bool",
          "name": "",
          "type": "bool"
        }
      ],
      "stateMutability": "nonpayable",
      "type": "function"
    },
    {
      "inputs": [
        {
          "internalType": "string",
          "name": "loginStr",
          "type": "string"
        }
      ],
      "name": "getBalance",
      "outputs": [
        {
          "internalType": "uint256",
          "name": "",
          "type": "uint256"
        }
      ],
      "stateMutability": "view",
      "type": "function"
    },
    {
      "inputs": [
        {
          "internalType": "address",
          "name": "spender",
          "type": "address"
        },
        {
          "internalType": "uint256",
          "name": "addedValue",
          "type": "uint256"
        }
      ],
      "name": "increaseAllowance",
      "outputs": [
        {
          "internalType": "bool",
          "name": "",
          "type": "bool"
        }
      ],
      "stateMutability": "nonpayable",
      "type": "function"
    },
    {
      "inputs": [],
      "name": "mintAmount",
      "outputs": [
        {
          "internalType": "uint256",
          "name": "",
          "type": "uint256"
        }
      ],
      "stateMutability": "view",
      "type": "function"
    },
    {
      "inputs": [],
      "name": "name",
      "outputs": [
        {
          "internalType": "string",
          "name": "",
          "type": "string"
        }
      ],
      "stateMutability": "view",
      "type": "function"
    },
    {
      "inputs": [],
      "name": "owner",
      "outputs": [
        {
          "internalType": "address",
          "name": "",
          "type": "address"
        }
      ],
      "stateMutability": "view",
      "type": "function"
    },
    {
      "inputs": [
        {
          "internalType": "string",
          "name": "loginStr",
          "type": "string"
        },
        {
          "internalType": "uint64",
          "name": "statementId",
          "type": "uint64"
        }
      ],
      "name": "register",
      "outputs": [],
      "stateMutability": "nonpayable",
      "type": "function"
    },
    {
      "inputs": [],
      "name": "renounceOwnership",
      "outputs": [],
      "stateMutability": "nonpayable",
      "type": "function"
    },
    {
      "inputs": [
        {
          "internalType": "uint256",
          "name": "_mintAmount",
          "type": "uint256"
        }
      ],
      "name": "setMintAmount",
      "outputs": [],
      "stateMutability": "nonpayable",
      "type": "function"
    },
    {
      "inputs": [],
      "name": "symbol",
      "outputs": [
        {
          "internalType": "string",
          "name": "",
          "type": "string"
        }
      ],
      "stateMutability": "view",
      "type": "function"
    },
    {
      "inputs": [],
      "name": "totalSupply",
      "outputs": [
        {
          "internalType": "uint256",
          "name": "",
          "type": "uint256"
        }
      ],
      "stateMutability": "view",
      "type": "function"
    },
    {
      "inputs": [
        {
          "internalType": "address",
          "name": "to",
          "type": "address"
        },
        {
          "internalType": "uint256",
          "name": "amount",
          "type": "uint256"
        }
      ],
      "name": "transfer",
      "outputs": [
        {
          "internalType": "bool",
          "name": "",
          "type": "bool"
        }
      ],
      "stateMutability": "nonpayable",
      "type": "function"
    },
    {
      "inputs": [
        {
          "internalType": "address",
          "name": "from",
          "type": "address"
        },
        {
          "internalType": "address",
          "name": "to",
          "type": "address"
        },
        {
          "internalType": "uint256",
          "name": "amount",
          "type": "uint256"
        }
      ],
      "name": "transferFrom",
      "outputs": [
        {
          "internalType": "bool",
          "name": "",
          "type": "bool"
        }
      ],
      "stateMutability": "nonpayable",
      "type": "function"
    },
    {
      "inputs": [
        {
          "internalType": "address",
          "name": "newOwner",
          "type": "address"
        }
      ],
      "name": "transferOwnership",
      "outputs": [],
      "stateMutability": "nonpayable",
      "type": "function"
    },
    {
      "inputs": [
        {
          "internalType": "string",
          "name": "loginStr",
          "type": "string"
        },
        {
          "internalType": "bytes",
          "name": "proof",
          "type": "bytes"
        },
        {
          "internalType": "uint256[]",
          "name": "init_params",
          "type": "uint256[]"
        },
        {
          "internalType": "int256[][]",
          "name": "columns_rotations",
          "type": "int256[][]"
        },
        {
          "internalType": "address",
          "name": "recepient",
          "type": "address"
        },
        {
          "internalType": "uint256",
          "name": "amount",
          "type": "uint256"
        }
      ],
      "name": "transferZk",
      "outputs": [],
      "stateMutability": "nonpayable",
      "type": "function"
    },
    {
      "inputs": [
        {
          "internalType": "bytes32",
          "name": "",
          "type": "bytes32"
        }
      ],
      "name": "usedProofs",
      "outputs": [
        {
          "internalType": "bool",
          "name": "",
          "type": "bool"
        }
      ],
      "stateMutability": "view",
      "type": "function"
    },
    {
      "inputs": [
        {
          "internalType": "uint64",
          "name": "",
          "type": "uint64"
        }
      ],
      "name": "usedStatements",
      "outputs": [
        {
          "internalType": "bool",
          "name": "",
          "type": "bool"
        }
      ],
      "stateMutability": "view",
      "type": "function"
    },
    {
      "inputs": [
        {
          "internalType": "bytes32",
          "name": "",
          "type": "bytes32"
        }
      ],
      "name": "users",
      "outputs": [
        {
          "internalType": "uint64",
          "name": "nonce",
          "type": "uint64"
        },
        {
          "internalType": "address",
          "name": "verifier",
          "type": "address"
        },
        {
          "internalType": "uint64",
          "name": "statementId",
          "type": "uint64"
        },
        {
          "internalType": "uint256",
          "name": "balance",
          "type": "uint256"
        }
      ],
      "stateMutability": "view",
      "type": "function"
    },
    {
      "inputs": [],
      "name": "verifier",
      "outputs": [
        {
          "internalType": "address",
          "name": "",
          "type": "address"
        }
      ],
      "stateMutability": "view",
      "type": "function"
    }
  ],
  "transactionHash": "0x3d7695aaf7e3ac42695f6e6285370176a03dbcd3115ad54b5cfc028237b18c40",
  "args": [
    "0x2Ca8E0C643bDe4C2E08ab1fA0da3401AdAD7734D"
  ],
  "numDeployments": 1,
  "solcInputHash": "d548b2063a0a7e0e7d14a7636d3d1248",
  "bytecode": "0x60806040523480156200001157600080fd5b506040516200343d3803806200343d833981810160405281019062000037919062000271565b6040518060400160405280600681526020017f7a6b4175746800000000000000000000000000000000000000000000000000008152506040518060400160405280600681526020017f7a6b4155544800000000000000000000000000000000000000000000000000008152508160039081620000b491906200051d565b508060049081620000c691906200051d565b505050620000e9620000dd6200013960201b60201c565b6200014160201b60201c565b80600960006101000a81548173ffffffffffffffffffffffffffffffffffffffff021916908373ffffffffffffffffffffffffffffffffffffffff1602179055506005600a819055505062000604565b600033905090565b6000600560009054906101000a900473ffffffffffffffffffffffffffffffffffffffff16905081600560006101000a81548173ffffffffffffffffffffffffffffffffffffffff021916908373ffffffffffffffffffffffffffffffffffffffff1602179055508173ffffffffffffffffffffffffffffffffffffffff168173ffffffffffffffffffffffffffffffffffffffff167f8be0079c531659141344cd1fd0a4f28419497f9722a3daafe3b4186f6b6457e060405160405180910390a35050565b600080fd5b600073ffffffffffffffffffffffffffffffffffffffff82169050919050565b600062000239826200020c565b9050919050565b6200024b816200022c565b81146200025757600080fd5b50565b6000815190506200026b8162000240565b92915050565b6000602082840312156200028a576200028962000207565b5b60006200029a848285016200025a565b91505092915050565b600081519050919050565b7f4e487b7100000000000000000000000000000000000000000000000000000000600052604160045260246000fd5b7f4e487b7100000000000000000000000000000000000000000000000000000000600052602260045260246000fd5b600060028204905060018216806200032557607f821691505b6020821081036200033b576200033a620002dd565b5b50919050565b60008190508160005260206000209050919050565b60006020601f8301049050919050565b600082821b905092915050565b600060088302620003a57fffffffffffffffffffffffffffffffffffffffffffffffffffffffffffffffff8262000366565b620003b1868362000366565b95508019841693508086168417925050509392505050565b6000819050919050565b6000819050919050565b6000620003fe620003f8620003f284620003c9565b620003d3565b620003c9565b9050919050565b6000819050919050565b6200041a83620003dd565b62000432620004298262000405565b84845462000373565b825550505050565b600090565b620004496200043a565b620004568184846200040f565b505050565b5b818110156200047e57620004726000826200043f565b6001810190506200045c565b5050565b601f821115620004cd57620004978162000341565b620004a28462000356565b81016020851015620004b2578190505b620004ca620004c18562000356565b8301826200045b565b50505b505050565b600082821c905092915050565b6000620004f260001984600802620004d2565b1980831691505092915050565b60006200050d8383620004df565b9150826002028217905092915050565b6200052882620002a3565b67ffffffffffffffff811115620005445762000543620002ae565b5b6200055082546200030c565b6200055d82828562000482565b600060209050601f83116001811462000595576000841562000580578287015190505b6200058c8582620004ff565b865550620005fc565b601f198416620005a58662000341565b60005b82811015620005cf57848901518255600182019150602085019450602081019050620005a8565b86831015620005ef5784890151620005eb601f891682620004df565b8355505b6001600288020188555050505b505050505050565b612e2980620006146000396000f3fe608060405234801561001057600080fd5b506004361061014d5760003560e01c806370a08231116100c3578063b27eb8b41161007c578063b27eb8b4146103b6578063c30a0f25146103e6578063c7cd997f14610416578063cea6ab9814610432578063dd62ed3e14610465578063f2fde38b146104955761014d565b806370a08231146102e0578063715018a6146103105780638da5cb5b1461031a57806395d89b4114610338578063a457c2d714610356578063a9059cbb146103865761014d565b8063313ce56711610115578063313ce5671461020c57806335865f171461022a57806339509351146102465780633a51d246146102765780635694cb0a146102a65780635a2bcc18146102c25761014d565b806306fdde0314610152578063095ea7b31461017057806318160ddd146101a057806323b872dd146101be5780632b7ac3f3146101ee575b600080fd5b61015a6104b1565b6040516101679190611868565b60405180910390f35b61018a60048036038101906101859190611932565b610543565b604051610197919061198d565b60405180910390f35b6101a8610566565b6040516101b591906119b7565b60405180910390f35b6101d860048036038101906101d391906119d2565b610570565b6040516101e5919061198d565b60405180910390f35b6101f661059f565b6040516102039190611a34565b60405180910390f35b6102146105c5565b6040516102219190611a6b565b60405180910390f35b610244600480360381019061023f9190611cc7565b6105ce565b005b610260600480360381019061025b9190611932565b6109f3565b60405161026d919061198d565b60405180910390f35b610290600480360381019061028b9190611dd2565b610a2a565b60405161029d91906119b7565b60405180910390f35b6102c060048036038101906102bb9190611e5b565b610a58565b005b6102ca610cbf565b6040516102d791906119b7565b60405180910390f35b6102fa60048036038101906102f59190611eb7565b610cc5565b60405161030791906119b7565b60405180910390f35b610318610d0d565b005b610322610d21565b60405161032f9190611a34565b60405180910390f35b610340610d4b565b60405161034d9190611868565b60405180910390f35b610370600480360381019061036b9190611932565b610ddd565b60405161037d919061198d565b60405180910390f35b6103a0600480360381019061039b9190611932565b610e54565b6040516103ad919061198d565b60405180910390f35b6103d060048036038101906103cb9190611ee4565b610e77565b6040516103dd919061198d565b60405180910390f35b61040060048036038101906103fb9190611f47565b610e97565b60405161040d919061198d565b60405180910390f35b610430600480360381019061042b9190611f74565b610eb7565b005b61044c60048036038101906104479190611f47565b610ec9565b60405161045c9493929190611fb0565b60405180910390f35b61047f600480360381019061047a9190611ff5565b610f41565b60405161048c91906119b7565b60405180910390f35b6104af60048036038101906104aa9190611eb7565b610fc8565b005b6060600380546104c090612064565b80601f01602080910402602001604051908101604052809291908181526020018280546104ec90612064565b80156105395780601f1061050e57610100808354040283529160200191610539565b820191906000526020600020905b81548152906001019060200180831161051c57829003601f168201915b5050505050905090565b60008061054e61104b565b905061055b818585611053565b600191505092915050565b6000600254905090565b60008061057b61104b565b905061058885828561121c565b6105938585856112a8565b60019150509392505050565b600960009054906101000a900473ffffffffffffffffffffffffffffffffffffffff1681565b60006012905090565b6000896105da906120d2565b90506000600660008381526020019081526020016000206040518060800160405290816000820160009054906101000a900467ffffffffffffffff1667ffffffffffffffff1667ffffffffffffffff1681526020016000820160089054906101000a900473ffffffffffffffffffffffffffffffffffffffff1673ffffffffffffffffffffffffffffffffffffffff1673ffffffffffffffffffffffffffffffffffffffff1681526020016001820160009054906101000a900467ffffffffffffffff1667ffffffffffffffff1667ffffffffffffffff1681526020016002820154815250509050600073ffffffffffffffffffffffffffffffffffffffff16816020015173ffffffffffffffffffffffffffffffffffffffff1603610735576040517f08c379a000000000000000000000000000000000000000000000000000000000815260040161072c90612185565b60405180910390fd5b60008a8a6040516107479291906121d5565b604051809103902090506007600082815260200190815260200160002060009054906101000a900460ff16156107b2576040517f08c379a00000000000000000000000000000000000000000000000000000000081526004016107a99061223a565b60405180910390fd5b83826060015110156107f9576040517f08c379a00000000000000000000000000000000000000000000000000000000081526004016107f0906122a6565b60405180910390fd5b6000826020015173ffffffffffffffffffffffffffffffffffffffff166320702f578d8d8d8d8d8d8a602001516040518863ffffffff1660e01b8152600401610848979695949392919061259e565b602060405180830381865afa158015610865573d6000803e3d6000fd5b505050506040513d601f19601f82011682018060405250810190610889919061262a565b9050806108cb576040517f08c379a00000000000000000000000000000000000000000000000000000000081526004016108c2906126a3565b60405180910390fd5b60006108d630610cc5565b90508581101561091b576040517f08c379a000000000000000000000000000000000000000000000000000000000815260040161091290612735565b60405180910390fd5b6109258787610e54565b508673ffffffffffffffffffffffffffffffffffffffff16857f4c13017ee95afc4bbd8a701dd9fbc9733f1f09f5a1b5438b5b9abd48e4c92d788860405161096d91906119b7565b60405180910390a361098c86856060015161151e90919063ffffffff16565b5060016007600085815260200190815260200160002060006101000a81548160ff0219169083151502179055508360000180518091906109cb90612784565b67ffffffffffffffff1667ffffffffffffffff16815250505050505050505050505050505050565b6000806109fe61104b565b9050610a1f818585610a108589610f41565b610a1a91906127b4565b611053565b600191505092915050565b60008082610a37906120d2565b90506006600082815260200190815260200160002060020154915050919050565b600082610a64906120d2565b9050600073ffffffffffffffffffffffffffffffffffffffff166006600083815260200190815260200160002060000160089054906101000a900473ffffffffffffffffffffffffffffffffffffffff1673ffffffffffffffffffffffffffffffffffffffff1614610b0b576040517f08c379a0000000000000000000000000000000000000000000000000000000008152600401610b0290612834565b60405180910390fd5b6001600860008467ffffffffffffffff1667ffffffffffffffff16815260200190815260200160002060006101000a81548160ff021916908315150217905550610b5730600a54611534565b6040518060800160405280600067ffffffffffffffff1681526020013373ffffffffffffffffffffffffffffffffffffffff1681526020018367ffffffffffffffff168152602001600a5473ffffffffffffffffffffffffffffffffffffffff168152506006600083815260200190815260200160002060008201518160000160006101000a81548167ffffffffffffffff021916908367ffffffffffffffff16021790555060208201518160000160086101000a81548173ffffffffffffffffffffffffffffffffffffffff021916908373ffffffffffffffffffffffffffffffffffffffff16021790555060408201518160010160006101000a81548167ffffffffffffffff021916908367ffffffffffffffff16021790555060608201518160020155905050807f8c238420b7a93d0b301754da65d674a3c50ded89a3b3383983b1c8f88261f98b3384604051610cb2929190612854565b60405180910390a2505050565b600a5481565b60008060008373ffffffffffffffffffffffffffffffffffffffff1673ffffffffffffffffffffffffffffffffffffffff168152602001908152602001600020549050919050565b610d1561168a565b610d1f6000611708565b565b6000600560009054906101000a900473ffffffffffffffffffffffffffffffffffffffff16905090565b606060048054610d5a90612064565b80601f0160208091040260200160405190810160405280929190818152602001828054610d8690612064565b8015610dd35780601f10610da857610100808354040283529160200191610dd3565b820191906000526020600020905b815481529060010190602001808311610db657829003601f168201915b5050505050905090565b600080610de861104b565b90506000610df68286610f41565b905083811015610e3b576040517f08c379a0000000000000000000000000000000000000000000000000000000008152600401610e32906128ef565b60405180910390fd5b610e488286868403611053565b60019250505092915050565b600080610e5f61104b565b9050610e6c8185856112a8565b600191505092915050565b60086020528060005260406000206000915054906101000a900460ff1681565b60076020528060005260406000206000915054906101000a900460ff1681565b610ebf61168a565b80600a8190555050565b60066020528060005260406000206000915090508060000160009054906101000a900467ffffffffffffffff16908060000160089054906101000a900473ffffffffffffffffffffffffffffffffffffffff16908060010160009054906101000a900467ffffffffffffffff16908060020154905084565b6000600160008473ffffffffffffffffffffffffffffffffffffffff1673ffffffffffffffffffffffffffffffffffffffff16815260200190815260200160002060008373ffffffffffffffffffffffffffffffffffffffff1673ffffffffffffffffffffffffffffffffffffffff16815260200190815260200160002054905092915050565b610fd061168a565b600073ffffffffffffffffffffffffffffffffffffffff168173ffffffffffffffffffffffffffffffffffffffff160361103f576040517f08c379a000000000000000000000000000000000000000000000000000000000815260040161103690612981565b60405180910390fd5b61104881611708565b50565b600033905090565b600073ffffffffffffffffffffffffffffffffffffffff168373ffffffffffffffffffffffffffffffffffffffff16036110c2576040517f08c379a00000000000000000000000000000000000000000000000000000000081526004016110b990612a13565b60405180910390fd5b600073ffffffffffffffffffffffffffffffffffffffff168273ffffffffffffffffffffffffffffffffffffffff1603611131576040517f08c379a000000000000000000000000000000000000000000000000000000000815260040161112890612aa5565b60405180910390fd5b80600160008573ffffffffffffffffffffffffffffffffffffffff1673ffffffffffffffffffffffffffffffffffffffff16815260200190815260200160002060008473ffffffffffffffffffffffffffffffffffffffff1673ffffffffffffffffffffffffffffffffffffffff168152602001908152602001600020819055508173ffffffffffffffffffffffffffffffffffffffff168373ffffffffffffffffffffffffffffffffffffffff167f8c5be1e5ebec7d5bd14f71427d1e84f3dd0314c0f7b2291e5b200ac8c7c3b9258360405161120f91906119b7565b60405180910390a3505050565b60006112288484610f41565b90507fffffffffffffffffffffffffffffffffffffffffffffffffffffffffffffffff81146112a25781811015611294576040517f08c379a000000000000000000000000000000000000000000000000000000000815260040161128b90612b11565b60405180910390fd5b6112a18484848403611053565b5b50505050565b600073ffffffffffffffffffffffffffffffffffffffff168373ffffffffffffffffffffffffffffffffffffffff1603611317576040517f08c379a000000000000000000000000000000000000000000000000000000000815260040161130e90612ba3565b60405180910390fd5b600073ffffffffffffffffffffffffffffffffffffffff168273ffffffffffffffffffffffffffffffffffffffff1603611386576040517f08c379a000000000000000000000000000000000000000000000000000000000815260040161137d90612c35565b60405180910390fd5b6113918383836117ce565b60008060008573ffffffffffffffffffffffffffffffffffffffff1673ffffffffffffffffffffffffffffffffffffffff16815260200190815260200160002054905081811015611417576040517f08c379a000000000000000000000000000000000000000000000000000000000815260040161140e90612cc7565b60405180910390fd5b8181036000808673ffffffffffffffffffffffffffffffffffffffff1673ffffffffffffffffffffffffffffffffffffffff16815260200190815260200160002081905550816000808573ffffffffffffffffffffffffffffffffffffffff1673ffffffffffffffffffffffffffffffffffffffff168152602001908152602001600020600082825401925050819055508273ffffffffffffffffffffffffffffffffffffffff168473ffffffffffffffffffffffffffffffffffffffff167fddf252ad1be2c89b69c2b068fc378daa952ba7f163c4a11628f55a4df523b3ef8460405161150591906119b7565b60405180910390a36115188484846117d3565b50505050565b6000818361152c9190612ce7565b905092915050565b600073ffffffffffffffffffffffffffffffffffffffff168273ffffffffffffffffffffffffffffffffffffffff16036115a3576040517f08c379a000000000000000000000000000000000000000000000000000000000815260040161159a90612d67565b60405180910390fd5b6115af600083836117ce565b80600260008282546115c191906127b4565b92505081905550806000808473ffffffffffffffffffffffffffffffffffffffff1673ffffffffffffffffffffffffffffffffffffffff168152602001908152602001600020600082825401925050819055508173ffffffffffffffffffffffffffffffffffffffff16600073ffffffffffffffffffffffffffffffffffffffff167fddf252ad1be2c89b69c2b068fc378daa952ba7f163c4a11628f55a4df523b3ef8360405161167291906119b7565b60405180910390a3611686600083836117d3565b5050565b61169261104b565b73ffffffffffffffffffffffffffffffffffffffff166116b0610d21565b73ffffffffffffffffffffffffffffffffffffffff1614611706576040517f08c379a00000000000000000000000000000000000000000000000000000000081526004016116fd90612dd3565b60405180910390fd5b565b6000600560009054906101000a900473ffffffffffffffffffffffffffffffffffffffff16905081600560006101000a81548173ffffffffffffffffffffffffffffffffffffffff021916908373ffffffffffffffffffffffffffffffffffffffff1602179055508173ffffffffffffffffffffffffffffffffffffffff168173ffffffffffffffffffffffffffffffffffffffff167f8be0079c531659141344cd1fd0a4f28419497f9722a3daafe3b4186f6b6457e060405160405180910390a35050565b505050565b505050565b600081519050919050565b600082825260208201905092915050565b60005b838110156118125780820151818401526020810190506117f7565b60008484015250505050565b6000601f19601f8301169050919050565b600061183a826117d8565b61184481856117e3565b93506118548185602086016117f4565b61185d8161181e565b840191505092915050565b60006020820190508181036000830152611882818461182f565b905092915050565b6000604051905090565b600080fd5b600080fd5b600073ffffffffffffffffffffffffffffffffffffffff82169050919050565b60006118c98261189e565b9050919050565b6118d9816118be565b81146118e457600080fd5b50565b6000813590506118f6816118d0565b92915050565b6000819050919050565b61190f816118fc565b811461191a57600080fd5b50565b60008135905061192c81611906565b92915050565b6000806040838503121561194957611948611894565b5b6000611957858286016118e7565b92505060206119688582860161191d565b9150509250929050565b60008115159050919050565b61198781611972565b82525050565b60006020820190506119a2600083018461197e565b92915050565b6119b1816118fc565b82525050565b60006020820190506119cc60008301846119a8565b92915050565b6000806000606084860312156119eb576119ea611894565b5b60006119f9868287016118e7565b9350506020611a0a868287016118e7565b9250506040611a1b8682870161191d565b9150509250925092565b611a2e816118be565b82525050565b6000602082019050611a496000830184611a25565b92915050565b600060ff82169050919050565b611a6581611a4f565b82525050565b6000602082019050611a806000830184611a5c565b92915050565b600080fd5b600080fd5b7f4e487b7100000000000000000000000000000000000000000000000000000000600052604160045260246000fd5b611ac88261181e565b810181811067ffffffffffffffff82111715611ae757611ae6611a90565b5b80604052505050565b6000611afa61188a565b9050611b068282611abf565b919050565b600067ffffffffffffffff821115611b2657611b25611a90565b5b611b2f8261181e565b9050602081019050919050565b82818337600083830152505050565b6000611b5e611b5984611b0b565b611af0565b905082815260208101848484011115611b7a57611b79611a8b565b5b611b85848285611b3c565b509392505050565b600082601f830112611ba257611ba1611a86565b5b8135611bb2848260208601611b4b565b91505092915050565b600080fd5b600080fd5b60008083601f840112611bdb57611bda611a86565b5b8235905067ffffffffffffffff811115611bf857611bf7611bbb565b5b602083019150836001820283011115611c1457611c13611bc0565b5b9250929050565b60008083601f840112611c3157611c30611a86565b5b8235905067ffffffffffffffff811115611c4e57611c4d611bbb565b5b602083019150836020820283011115611c6a57611c69611bc0565b5b9250929050565b60008083601f840112611c8757611c86611a86565b5b8235905067ffffffffffffffff811115611ca457611ca3611bbb565b5b602083019150836020820283011115611cc057611cbf611bc0565b5b9250929050565b600080600080600080600080600060c08a8c031215611ce957611ce8611894565b5b60008a013567ffffffffffffffff811115611d0757611d06611899565b5b611d138c828d01611b8d565b99505060208a013567ffffffffffffffff811115611d3457611d33611899565b5b611d408c828d01611bc5565b985098505060408a013567ffffffffffffffff811115611d6357611d62611899565b5b611d6f8c828d01611c1b565b965096505060608a013567ffffffffffffffff811115611d9257611d91611899565b5b611d9e8c828d01611c71565b94509450506080611db18c828d016118e7565b92505060a0611dc28c828d0161191d565b9150509295985092959850929598565b600060208284031215611de857611de7611894565b5b600082013567ffffffffffffffff811115611e0657611e05611899565b5b611e1284828501611b8d565b91505092915050565b600067ffffffffffffffff82169050919050565b611e3881611e1b565b8114611e4357600080fd5b50565b600081359050611e5581611e2f565b92915050565b60008060408385031215611e7257611e71611894565b5b600083013567ffffffffffffffff811115611e9057611e8f611899565b5b611e9c85828601611b8d565b9250506020611ead85828601611e46565b9150509250929050565b600060208284031215611ecd57611ecc611894565b5b6000611edb848285016118e7565b91505092915050565b600060208284031215611efa57611ef9611894565b5b6000611f0884828501611e46565b91505092915050565b6000819050919050565b611f2481611f11565b8114611f2f57600080fd5b50565b600081359050611f4181611f1b565b92915050565b600060208284031215611f5d57611f5c611894565b5b6000611f6b84828501611f32565b91505092915050565b600060208284031215611f8a57611f89611894565b5b6000611f988482850161191d565b91505092915050565b611faa81611e1b565b82525050565b6000608082019050611fc56000830187611fa1565b611fd26020830186611a25565b611fdf6040830185611fa1565b611fec60608301846119a8565b95945050505050565b6000806040838503121561200c5761200b611894565b5b600061201a858286016118e7565b925050602061202b858286016118e7565b9150509250929050565b7f4e487b7100000000000000000000000000000000000000000000000000000000600052602260045260246000fd5b6000600282049050600182168061207c57607f821691505b60208210810361208f5761208e612035565b5b50919050565b600081519050919050565b6000819050602082019050919050565b60006120bc8251611f11565b80915050919050565b600082821b905092915050565b60006120dd82612095565b826120e7846120a0565b90506120f2816120b0565b925060208210156121325761212d7fffffffffffffffffffffffffffffffffffffffffffffffffffffffffffffffff836020036008026120c5565b831692505b5050919050565b7f5573657220646f65736e27742065786973740000000000000000000000000000600082015250565b600061216f6012836117e3565b915061217a82612139565b602082019050919050565b6000602082019050818103600083015261219e81612162565b9050919050565b600081905092915050565b60006121bc83856121a5565b93506121c9838584611b3c565b82840190509392505050565b60006121e28284866121b0565b91508190509392505050565b7f50726f6f6620616c726561647920757365640000000000000000000000000000600082015250565b60006122246012836117e3565b915061222f826121ee565b602082019050919050565b6000602082019050818103600083015261225381612217565b9050919050565b7f4e6f7420656e6f7567682062616c616e63650000000000000000000000000000600082015250565b60006122906012836117e3565b915061229b8261225a565b602082019050919050565b600060208201905081810360008301526122bf81612283565b9050919050565b600082825260208201905092915050565b60006122e383856122c6565b93506122f0838584611b3c565b6122f98361181e565b840190509392505050565b600082825260208201905092915050565b600080fd5b82818337505050565b600061232f8385612304565b93507f07ffffffffffffffffffffffffffffffffffffffffffffffffffffffffffffff83111561236257612361612315565b5b60208302925061237383858461231a565b82840190509392505050565b600082825260208201905092915050565b6000819050919050565b600082825260208201905092915050565b6000819050919050565b6000819050919050565b6123c8816123b5565b82525050565b60006123da83836123bf565b60208301905092915050565b6123ef816123b5565b81146123fa57600080fd5b50565b60008135905061240c816123e6565b92915050565b600061242160208401846123fd565b905092915050565b6000602082019050919050565b6000612442838561239a565b935061244d826123ab565b8060005b85811015612486576124638284612412565b61246d88826123ce565b975061247883612429565b925050600181019050612451565b5085925050509392505050565b60006124a0848484612436565b90509392505050565b600080fd5b600080fd5b600080fd5b600080833560016020038436030381126124d5576124d46124b3565b5b83810192508235915060208301925067ffffffffffffffff8211156124fd576124fc6124a9565b5b602082023603831315612513576125126124ae565b5b509250929050565b6000602082019050919050565b6000612534838561237f565b93508360208402850161254684612390565b8060005b8781101561258c57848403895261256182846124b8565b61256c868284612493565b95506125778461251b565b935060208b019a50505060018101905061254a565b50829750879450505050509392505050565b600060808201905081810360008301526125b981898b6122d7565b905081810360208301526125ce818789612323565b905081810360408301526125e3818587612528565b90506125f26060830184611a25565b98975050505050505050565b61260781611972565b811461261257600080fd5b50565b600081519050612624816125fe565b92915050565b6000602082840312156126405761263f611894565b5b600061264e84828501612615565b91505092915050565b7f50726f6f66206973206e6f742076616c69640000000000000000000000000000600082015250565b600061268d6012836117e3565b915061269882612657565b602082019050919050565b600060208201905081810360008301526126bc81612680565b9050919050565b7f4e6f7420656e6f75676820746f6b656e7320696e2074686520636f6e7472616360008201527f7400000000000000000000000000000000000000000000000000000000000000602082015250565b600061271f6021836117e3565b915061272a826126c3565b604082019050919050565b6000602082019050818103600083015261274e81612712565b9050919050565b7f4e487b7100000000000000000000000000000000000000000000000000000000600052601160045260246000fd5b600061278f82611e1b565b915067ffffffffffffffff82036127a9576127a8612755565b5b600182019050919050565b60006127bf826118fc565b91506127ca836118fc565b92508282019050808211156127e2576127e1612755565b5b92915050565b7f5573657220616c72656164792065786973747300000000000000000000000000600082015250565b600061281e6013836117e3565b9150612829826127e8565b602082019050919050565b6000602082019050818103600083015261284d81612811565b9050919050565b60006040820190506128696000830185611a25565b6128766020830184611fa1565b9392505050565b7f45524332303a2064656372656173656420616c6c6f77616e63652062656c6f7760008201527f207a65726f000000000000000000000000000000000000000000000000000000602082015250565b60006128d96025836117e3565b91506128e48261287d565b604082019050919050565b60006020820190508181036000830152612908816128cc565b9050919050565b7f4f776e61626c653a206e6577206f776e657220697320746865207a65726f206160008201527f6464726573730000000000000000000000000000000000000000000000000000602082015250565b600061296b6026836117e3565b91506129768261290f565b604082019050919050565b6000602082019050818103600083015261299a8161295e565b9050919050565b7f45524332303a20617070726f76652066726f6d20746865207a65726f2061646460008201527f7265737300000000000000000000000000000000000000000000000000000000602082015250565b60006129fd6024836117e3565b9150612a08826129a1565b604082019050919050565b60006020820190508181036000830152612a2c816129f0565b9050919050565b7f45524332303a20617070726f766520746f20746865207a65726f20616464726560008201527f7373000000000000000000000000000000000000000000000000000000000000602082015250565b6000612a8f6022836117e3565b9150612a9a82612a33565b604082019050919050565b60006020820190508181036000830152612abe81612a82565b9050919050565b7f45524332303a20696e73756666696369656e7420616c6c6f77616e6365000000600082015250565b6000612afb601d836117e3565b9150612b0682612ac5565b602082019050919050565b60006020820190508181036000830152612b2a81612aee565b9050919050565b7f45524332303a207472616e736665722066726f6d20746865207a65726f20616460008201527f6472657373000000000000000000000000000000000000000000000000000000602082015250565b6000612b8d6025836117e3565b9150612b9882612b31565b604082019050919050565b60006020820190508181036000830152612bbc81612b80565b9050919050565b7f45524332303a207472616e7366657220746f20746865207a65726f206164647260008201527f6573730000000000000000000000000000000000000000000000000000000000602082015250565b6000612c1f6023836117e3565b9150612c2a82612bc3565b604082019050919050565b60006020820190508181036000830152612c4e81612c12565b9050919050565b7f45524332303a207472616e7366657220616d6f756e742065786365656473206260008201527f616c616e63650000000000000000000000000000000000000000000000000000602082015250565b6000612cb16026836117e3565b9150612cbc82612c55565b604082019050919050565b60006020820190508181036000830152612ce081612ca4565b9050919050565b6000612cf2826118fc565b9150612cfd836118fc565b9250828203905081811115612d1557612d14612755565b5b92915050565b7f45524332303a206d696e7420746f20746865207a65726f206164647265737300600082015250565b6000612d51601f836117e3565b9150612d5c82612d1b565b602082019050919050565b60006020820190508181036000830152612d8081612d44565b9050919050565b7f4f776e61626c653a2063616c6c6572206973206e6f7420746865206f776e6572600082015250565b6000612dbd6020836117e3565b9150612dc882612d87565b602082019050919050565b60006020820190508181036000830152612dec81612db0565b905091905056fea2646970667358221220a779e6d9f98865ed75f88e684c1088d867e1646574e6bc0b70b99069007b709864736f6c63430008140033",
  "devdoc": {
    "events": {
      "Approval(address,address,uint256)": {
        "details": "Emitted when the allowance of a `spender` for an `owner` is set by a call to {approve}. `value` is the new allowance."
      },
      "Transfer(address,address,uint256)": {
        "details": "Emitted when `value` tokens are moved from one account (`from`) to another (`to`). Note that `value` may be zero."
      }
    },
    "kind": "dev",
    "methods": {
      "allowance(address,address)": {
        "details": "See {IERC20-allowance}."
      },
      "approve(address,uint256)": {
        "details": "See {IERC20-approve}. NOTE: If `amount` is the maximum `uint256`, the allowance is not updated on `transferFrom`. This is semantically equivalent to an infinite approval. Requirements: - `spender` cannot be the zero address."
      },
      "balanceOf(address)": {
        "details": "See {IERC20-balanceOf}."
      },
      "decimals()": {
        "details": "Returns the number of decimals used to get its user representation. For example, if `decimals` equals `2`, a balance of `505` tokens should be displayed to a user as `5.05` (`505 / 10 ** 2`). Tokens usually opt for a value of 18, imitating the relationship between Ether and Wei. This is the default value returned by this function, unless it's overridden. NOTE: This information is only used for _display_ purposes: it in no way affects any of the arithmetic of the contract, including {IERC20-balanceOf} and {IERC20-transfer}."
      },
      "decreaseAllowance(address,uint256)": {
        "details": "Atomically decreases the allowance granted to `spender` by the caller. This is an alternative to {approve} that can be used as a mitigation for problems described in {IERC20-approve}. Emits an {Approval} event indicating the updated allowance. Requirements: - `spender` cannot be the zero address. - `spender` must have allowance for the caller of at least `subtractedValue`."
      },
      "increaseAllowance(address,uint256)": {
        "details": "Atomically increases the allowance granted to `spender` by the caller. This is an alternative to {approve} that can be used as a mitigation for problems described in {IERC20-approve}. Emits an {Approval} event indicating the updated allowance. Requirements: - `spender` cannot be the zero address."
      },
      "name()": {
        "details": "Returns the name of the token."
      },
      "owner()": {
        "details": "Returns the address of the current owner."
      },
      "renounceOwnership()": {
        "details": "Leaves the contract without owner. It will not be possible to call `onlyOwner` functions. Can only be called by the current owner. NOTE: Renouncing ownership will leave the contract without an owner, thereby disabling any functionality that is only available to the owner."
      },
      "symbol()": {
        "details": "Returns the symbol of the token, usually a shorter version of the name."
      },
      "totalSupply()": {
        "details": "See {IERC20-totalSupply}."
      },
      "transfer(address,uint256)": {
        "details": "See {IERC20-transfer}. Requirements: - `to` cannot be the zero address. - the caller must have a balance of at least `amount`."
      },
      "transferFrom(address,address,uint256)": {
        "details": "See {IERC20-transferFrom}. Emits an {Approval} event indicating the updated allowance. This is not required by the EIP. See the note at the beginning of {ERC20}. NOTE: Does not update the allowance if the current allowance is the maximum `uint256`. Requirements: - `from` and `to` cannot be the zero address. - `from` must have a balance of at least `amount`. - the caller must have allowance for ``from``'s tokens of at least `amount`."
      },
      "transferOwnership(address)": {
        "details": "Transfers ownership of the contract to a new account (`newOwner`). Can only be called by the current owner."
      }
    },
    "version": 1
  },
  "userdoc": {
    "kind": "user",
    "methods": {},
    "version": 1
  },
  "storageLayout": {
    "storage": [
      {
        "astId": 128,
        "contract": "contracts/GoogleAuth.sol:GoogleAuth",
        "label": "_balances",
        "offset": 0,
        "slot": "0",
        "type": "t_mapping(t_address,t_uint256)"
      },
      {
        "astId": 134,
        "contract": "contracts/GoogleAuth.sol:GoogleAuth",
        "label": "_allowances",
        "offset": 0,
        "slot": "1",
        "type": "t_mapping(t_address,t_mapping(t_address,t_uint256))"
      },
      {
        "astId": 136,
        "contract": "contracts/GoogleAuth.sol:GoogleAuth",
        "label": "_totalSupply",
        "offset": 0,
        "slot": "2",
        "type": "t_uint256"
      },
      {
        "astId": 138,
        "contract": "contracts/GoogleAuth.sol:GoogleAuth",
        "label": "_name",
        "offset": 0,
        "slot": "3",
        "type": "t_string_storage"
      },
      {
        "astId": 140,
        "contract": "contracts/GoogleAuth.sol:GoogleAuth",
        "label": "_symbol",
        "offset": 0,
        "slot": "4",
        "type": "t_string_storage"
      },
      {
        "astId": 7,
        "contract": "contracts/GoogleAuth.sol:GoogleAuth",
        "label": "_owner",
        "offset": 0,
        "slot": "5",
        "type": "t_address"
      },
      {
        "astId": 1179,
        "contract": "contracts/GoogleAuth.sol:GoogleAuth",
        "label": "users",
        "offset": 0,
        "slot": "6",
        "type": "t_mapping(t_bytes32,t_struct(User)1174_storage)"
      },
      {
        "astId": 1183,
        "contract": "contracts/GoogleAuth.sol:GoogleAuth",
        "label": "usedProofs",
        "offset": 0,
        "slot": "7",
        "type": "t_mapping(t_bytes32,t_bool)"
      },
      {
        "astId": 1187,
        "contract": "contracts/GoogleAuth.sol:GoogleAuth",
        "label": "usedStatements",
        "offset": 0,
        "slot": "8",
        "type": "t_mapping(t_uint64,t_bool)"
      },
      {
        "astId": 1189,
        "contract": "contracts/GoogleAuth.sol:GoogleAuth",
        "label": "verifier",
        "offset": 0,
        "slot": "9",
        "type": "t_address"
      },
      {
        "astId": 1191,
        "contract": "contracts/GoogleAuth.sol:GoogleAuth",
        "label": "mintAmount",
        "offset": 0,
        "slot": "10",
        "type": "t_uint256"
      }
    ],
    "types": {
      "t_address": {
        "encoding": "inplace",
        "label": "address",
        "numberOfBytes": "20"
      },
      "t_bool": {
        "encoding": "inplace",
        "label": "bool",
        "numberOfBytes": "1"
      },
      "t_bytes32": {
        "encoding": "inplace",
        "label": "bytes32",
        "numberOfBytes": "32"
      },
      "t_mapping(t_address,t_mapping(t_address,t_uint256))": {
        "encoding": "mapping",
        "key": "t_address",
        "label": "mapping(address => mapping(address => uint256))",
        "numberOfBytes": "32",
        "value": "t_mapping(t_address,t_uint256)"
      },
      "t_mapping(t_address,t_uint256)": {
        "encoding": "mapping",
        "key": "t_address",
        "label": "mapping(address => uint256)",
        "numberOfBytes": "32",
        "value": "t_uint256"
      },
      "t_mapping(t_bytes32,t_bool)": {
        "encoding": "mapping",
        "key": "t_bytes32",
        "label": "mapping(bytes32 => bool)",
        "numberOfBytes": "32",
        "value": "t_bool"
      },
      "t_mapping(t_bytes32,t_struct(User)1174_storage)": {
        "encoding": "mapping",
        "key": "t_bytes32",
        "label": "mapping(bytes32 => struct GoogleAuth.User)",
        "numberOfBytes": "32",
        "value": "t_struct(User)1174_storage"
      },
      "t_mapping(t_uint64,t_bool)": {
        "encoding": "mapping",
        "key": "t_uint64",
        "label": "mapping(uint64 => bool)",
        "numberOfBytes": "32",
        "value": "t_bool"
      },
      "t_string_storage": {
        "encoding": "bytes",
        "label": "string",
        "numberOfBytes": "32"
      },
      "t_struct(User)1174_storage": {
        "encoding": "inplace",
        "label": "struct GoogleAuth.User",
        "members": [
          {
            "astId": 1167,
            "contract": "contracts/GoogleAuth.sol:GoogleAuth",
            "label": "nonce",
            "offset": 0,
            "slot": "0",
            "type": "t_uint64"
          },
          {
            "astId": 1169,
            "contract": "contracts/GoogleAuth.sol:GoogleAuth",
            "label": "verifier",
            "offset": 8,
            "slot": "0",
            "type": "t_address"
          },
          {
            "astId": 1171,
            "contract": "contracts/GoogleAuth.sol:GoogleAuth",
            "label": "statementId",
            "offset": 0,
            "slot": "1",
            "type": "t_uint64"
          },
          {
            "astId": 1173,
            "contract": "contracts/GoogleAuth.sol:GoogleAuth",
            "label": "balance",
            "offset": 0,
            "slot": "2",
            "type": "t_uint256"
          }
        ],
        "numberOfBytes": "96"
      },
      "t_uint256": {
        "encoding": "inplace",
        "label": "uint256",
        "numberOfBytes": "32"
      },
      "t_uint64": {
        "encoding": "inplace",
        "label": "uint64",
        "numberOfBytes": "8"
      }
    }
  }
}